:10000000F8FF0020110400002B3700002B37000000
:100010002B3700002B3700002B3700002B37000058
:100020002B3700002B3700002B3700002B37000048
:100030002B3700002B3700002B3700002B37000038
:100040008D5C00002B3700002B3700002B370000A1
:100050002B3700002B3700002B3700002B37000018
:100060002B3700002B3700002B3700002B37000008
:100070002B3700002B3700002B3700002B370000F8
:100080002B3700002B3700002B3700002B370000E8
:100090002B3700002B3700002B3700002B370000D8
:1000A0002B3700002B3700002B3700002B370000C8
:1000B0002B3700002B3700002B3700002B370000B8
:1000C0002B3700002B3700002B3700002B370000A8
:1000D0002B3700002B3700002B3700002B37000098
:1000E0002B3700002B3700002B3700002B37000088
:1000F0002B3700002B3700002B3700002B37000078
:100100002B3700002B3700002B3700002B37000067
:100110002B3700002B3700002B3700002B37000057
:100120002B3700002B3700002B3700002B37000047
:100130002B3700002B3700002B3700002B37000037
:100140002B3700002B3700002B3700002B37000027
:100150002B3700002B3700002B3700002B37000017
:100160002B3700002B3700002B3700002B37000007
:100170002B3700002B3700002B3700002B370000F7
:100180002B3700002B3700002B3700002B370000E7
:100190002B3700002B3700002B3700002B370000D7
:1001A0005D5C00002B3700002B3700002B37000070
:1001B0002B3700002B3700002B3700002B370000B7
:1001C0002B3700002B3700002B3700002B370000A7
:1001D0002B3700002B3700002B3700002B37000097
:1001E0002B3700002B3700002B3700002B37000087
:10040000FFFFFFFFFFFFFFFFFFFFFFFFFEFFFFFFFD
:1004100062B604F0AFFFFEE72DE9F04FA1B08246CF
:1004200002AE002017461D46029170620DF144088D
:100430000AE017F8011B0298D0470290002800F04C
:10044000D482706A401C7062387808B9706ACEE253
:100450002528EED10020F06030617061B061F0615C
:10046000306201E040F0010017F8011F2029F9D0A7
:1004700023290DD02B2904D02D2906D030290AD0CC
:100480000CE040F0020080B2EEE740F00400FAE732
:1004900040F00800F7E740F01000F4E72A290DD1FA
:1004A00029680A1D2A600968F162002904D54942B9
:1004B00040F00400F16280B27F1C13E00021F16281
:1004C0000BE0F16A6FF00043994205D001EB810324
:1004D00002EB43013039F1627F1C3A78A2F130011E
:1004E0000A29EED339782E2903D04FF0FF31B162BB
:1004F0001EE017F8011F2A2906D129680A1D2A6063
:100500007F1C0968B16213E00021B1620BE0B16A9F
:100510006FF00043994205D001EB810302EB4301E8
:100520003039B1627F1C3A78A2F130010A29EED34A
:1005300030860FF6BC20397800F078FD08B117F846
:10054000010B8DF83A009DF83A00682802BF39780F
:100550006829622005D06C2804BF38786C2803D144
:1005600071208DF83A007F1C11A8B0603978B1F184
:10057000250023D02038022840F2B980133800F03B
:10058000E1800B3800F07781401E00F02081401E92
:10059000022840F2AC80001F00F01981401F7BD080
:1005A000401E00F0CF80401E22D0C01E0BD0801E07
:1005B00000F0C880C01E00F0C58064E1F068411CF6
:1005C000F160252169E12868011D29600068B26A8F
:1005D0007060002A02D500F039FD07E0002100F02C
:1005E00051FD00281ABF7168401AB06A306156E1A7
:1005F0002868011D296000210068CDE900014FF045
:100600003C0E11A87060DDE9000111B908B9B26AA9
:10061000CAB10206120FA0EB02123032AEF1010392
:10062000D2B29E463A2AA8BF2732000903F8082012
:1006300040EA0170090908BF002804D0726811ABB4
:1006400073449A42E5D311A971447160CEF13C0024
:10065000B16A3061884207DA081AB0614FF6EF716B
:10066000308E084030861AE1002940F1188196F852
:10067000301001F01401102940F01181F16AF26884
:10068000891AB269891AA1EB000EBEF1010FC0F2FE
:100690000681C6F818E002E19DF83A00622818D0F9
:1006A000682806D06A280BD06C2819D0712807D08A
:1006B00016E02868011D29600068716A0180EEE07B
:1006C0002A68101D28601268706AC117C2E900010B
:1006D000E5E02868011D29600068716A0170DEE0AC
:1006E0002868011D29600068716A0160D7E02868E8
:1006F000C01D20F00700286000F108022A60D0E940
:100700000023CDE90023002B04D5F068421CF260E1
:100710002D220DE0308E820704D5F068421CF26075
:100720002B2205E0C00705D5F068421CF2602022AC
:1007300000F80820F06811AA8018706000A800F086
:10074000E3F9ACE09DF83A006C2808BF2A6811D0A4
:10075000712808BF2A6802D02A686A280AD1D21DE7
:1007600022F007022A60144604F108022A60D4E944
:10077000002303E0131D2B6000231268CDE9002342
:10078000682808BF92B207D0622808BFD2B203D04F
:10079000742818BF7A2802D10023CDE9002396F8E7
:1007A000300000075FD5DDE90023002B08BF002AD9
:1007B00059D041F02000782855D1F068302200F857
:1007C0000820401C421CF26000F808104BE09DF825
:1007D0003A0062280CD0682810D06A281AD06C28F9
:1007E00023D0712816D074281FD07A280CD01CE092
:1007F0002868021D2A6090F900201AE02868021D6E
:100800002A60B0F9002014E02868021D2A60002345
:1008100002680FE02868C01D20F00700286000F182
:1008200008022A60D0E9002304E02868021D2A603B
:100830000268D317CDE90023002B04DAF068421CCC
:10084000F2602D220DE0308E820704D5F068421C44
:10085000F2602B2205E0C00705D5F068421CF2606B
:10086000202200F80820F06811AA8018706000A803
:1008700000F0C0F813E0F068411CF16029680A1D1F
:100880002A60096809E0F068421CF260252200F83D
:10089000082021B1F068421CF26000F80810F06AEC
:1008A000F168401AB169401A3169401AF169401A79
:1008B0007169401A316AA0EB010996F830007F1C7B
:1008C000400710D420208DF84000002409E00123C7
:1008D00010AA00A9504600F073FB002840F0858064
:1008E000641C4C45F3DBF4680DF1440B0AE01BF883
:1008F000011B0298D0470290002876D0706A401CF5
:100900007062641E002CF2D130208DF840004FF050
:10091000000BB46909E0012310AA00A9504600F0B9
:100920004FFB002861D10BF1010BA345F3DB3469C8
:10093000D6F804B00AE01BF8011B0298D0470290D9
:10094000002852D0706A401C7062641E002CF2D1E4
:1009500030208DF840004FF0000BF46909E00123CE
:1009600010AA00A9504600F02BFB00283DD10BF146
:10097000010BA345F3DB30697168746900EB010B6F
:1009800009E01BF8011B0298D047029068B3706A17
:10099000401C7062641E002CF3D130208DF84000A2
:1009A0004FF0000B346A08E0012310AA00A950465A
:1009B00000F006FBC8B90BF1010BA345F4DB96F878
:1009C000300040077FF540AD20208DF84000002426
:1009D00000E0641C4C45BFF637AD012310AA00A906
:1009E000504600F0EDFA0028F3D04FF0FF3021B070
:1009F000BDE8F08F2DE9FA47064682B035690A4610
:100A00006F2A08BF082705D041F02000782814BFBE
:100A10000A271027D6E900013C2480468946642A2B
:100A200018BF692A05D1002903DAD8F1000869EB5B
:100A30004909B9F1000F08BFB8F1000F0CD1306BB4
:100A400050B9082F3BD196F83800000737D5302031
:100A50003B2485F83B0032E0CDE90089FB17404696
:100A600049463A4600F03AFBB846A8FB0023DDE9C8
:100A70000089A8EB02023032A4F1010AD2B2544636
:100A80003A2A03DB9DF80830513B9A180AF80520F2
:100A900080465FEA010908BFB8F1000F03D0F06893
:100AA00061198842D8D3082F09D196F83800000779
:100AB00005D5605D302802D0641E30206055C4F139
:100AC0003C00B0616119F160316B884207DA081AA5
:100AD00030624FF6EF71308F0840308710E0002908
:100AE0000ED596F8381001F01401102908D1716B59
:100AF0007269891A326A891A081A0128A8BF3062F5
:100B000004B0BDE8F08700002DE9F34F8BB0D0E9C9
:100B10000089006B01AF002802D50B98062106E082
:100B200004BF41F02000672802D10B980121016326
:100B30000B984168C1F30A5040F2FF72904220D1F5
:100B4000080302BF0B98006800280AD10B98032104
:100B500081619DF8300061381A2858D30FF2A44102
:100B600009E00B98032181619DF8300061381A2853
:100B70004AD30FF288410B98C068032200F026FB8D
:100B800001E1012807DA0B9800F05BFB012802DB8A
:100B900000230026EEE00B9A526840F2FE3161F32A
:100BA0001E520B994A6040F2FE31461A40464946B1
:100BB0000022002300F066FB38BF89F0004936B2FE
:100BC00047F2975070434A49DFF828B190FBF1F69D
:100BD00036B2C6F107079246012F1BDBF80707D58F
:100BE00052465B464046494600F064FB80468946D3
:100BF0007F105046594652465B4600F05BFB8246EA
:100C00008B46002FEAD126E00FF2EC31B3E70FF26A
:100C1000F031B0E77F420024374D12E0F80707D5E6
:100C200052465B462046294600F044FB04460D46EA
:100C30007F105046594652465B4600F03BFB8246C9
:100C40008B46002FEAD14046494622462B4600F00B
:100C500003FC804689469DF8300040F02005662D53
:100C60000CBF06F10A0006200B99096B4718142FD8
:100C7000A8BF132730208DF804000DF10504DFF81C
:100C80007CB0012F3CDB4046494600F009FD01469F
:100C900004F1080204234FF00A0CB1FBFCFC0CEB3E
:100CA0008C04A1EB4401303102F8011D0A21BCFB88
:100CB000F1FE0EEB8E04ACEB44043034714602F8C6
:100CC000014D5B1EE7D1083F02F10804012FD8DB7C
:100CD00000F006FD02460B464046494600F00EFD78
:100CE00000225B4600F0E6FA80468946CBE700BF6B
:100CF000A0860100000024400000F03F84D7974107
:100D00000DF10500201A0DF1050702E0401E761EC8
:100D10007F1C39783029F9D0662D02D136B2711C8A
:100D200003E0652D0CBF012100210B9A126B8B187B
:100D30001BB29842B8BF03461BB219001AD48142B5
:100D400004DAC85D3528A8BF392000DA3020CA1976
:100D5000521E00E05B1E12F80159491E8542F9D06F
:100D6000392802D1C85D401CC855002902D57F1E14
:100D70005B1C761C36B29DF830100B9800961BB2A7
:100D80003A4600F003F80DB0BDE8F08F2DE9F047CA
:100D900086B006468A4690461D4600F08CFD406AA5
:100DA000376B90F80090012D02DA01250FF25828D8
:100DB0004AF02000BDF93840662808BF641C13D0F3
:100DC000672840F0878014F1040F72DBBC4270DAB0
:100DD00096F83800641C000702D4BD42B8BF2F4605
:100DE00024B23F1B48BF0027F068B16924B2012C30
:100DF00021DA30234A1C0B54012F03DA96F83810FD
:100E0000090702D502F80090521CB261E742B8BF50
:100E10007C4224B26142E7197162AF42B8BF3D46DD
:100E20002DB2F5612A46B3694146181800F0CEF993
:100E3000781BB062ADE00818A54216DA2A46414692
:100E400000F0C4F9B1696918B161601B7062012FCB
:100E500003DA96F83800000705D5F06801F800902D
:100E6000F069401CF061B76293E02246414600F011
:100E7000ADF9B06920182D1B012F03DA96F8381050
:100E8000090703D5F16800F80190401C2DB2B0614C
:100E9000AF42B8BF3D46F3682DB22A4604EB0801C5
:100EA000C01800F093F9B0692818B061781B70621F
:100EB0006FE0BD4204DA96F83810090758BF2F4694
:100EC0007F1E48BF0027BAF1670F0CBF4FF0650ABD
:100ED0004FF0450AB169F06818F8013B0B544A1C01
:100EE000012F05DA96F83810090758BFB26115D5F9
:100EF00002F80090531CB361012F0FDB6D1E2DB261
:100F0000AF42B8BF3D462DB22A464146181800F000
:100F10005DF9B0692818B061781B7062B069F1683A
:100F200000EB0108200008F801AB03D42B2008F8DF
:100F3000010B03E02D2108F8011B6442002502AFDC
:100F400008E00A2200A800F0CFFC019807F8010B86
:100F50006D1C009C21B20129F3DA022D06DA4AF059
:100F60002000652804BF302008F8010B4DB930205F
:100F700008F8010B07E06D1E02A8285C303008F865
:100F8000010B012DF7DAB069F1684018A8EB0000F9
:100F9000F06196F8380000F0140010280DD1706947
:100FA000B1690818716A0818F1690818B16A081857
:100FB000716B8842BCBF081A306206B0BDE8F0878A
:100FC000F8B504460D4616461F46002004E0E86AC0
:100FD000401CE8627F1E002047B116F8011BA8687C
:100FE000A047A8600028F2D14FF0FF30F2BD00000A
:100FF000686A6C747A4C00006E616E004E414E005F
:10100000696E6600494E4600300050F8041B61B11D
:1010100050F8042BD30744BFA9F101039A18002309
:1010200042F8043B091FFAD1EFE770470278C9B2D2
:101030008A421AB11CBF10F8012FF9E718BF00202F
:1010400070470268531C03601170704700F1010380
:10105000810704D010F8011B89B18107FAD1026819
:10106000B2F10131914311F0803F04BF50F8042FD9
:10107000F6E710F8011B11B110F8011BFBE7C01ACD
:101080007047FF00C9B2830706D0521E22D310F862
:10109000013B9942F7D11FE0083A13D302F1040251
:1010A00041EA012141EA014150F8043B121F21BFEE
:1010B0004B40A3F1013C2CEA030C1CF0803FF3D021
:1010C000C9B2001F083210F8013B521E28BF91EA36
:1010D000030FF8D818BF0120401E70471B4213D1E0
:1010E000094236D12AB18446B0FBF2F002FB10C2AD
:1010F000704700F001BCFCD30022002370470B00B6
:101100000200002100207047904271EB030CF6D3DF
:1011100070B5B1FA81F4B3FA83F52C1BA340C4F186
:10112000200532FA05F63343A2405FF00046E64060
:1011300002E05B085FEA3202841A71EB030524BF08
:10114000204629467641F4D302000B0030000021EE
:1011500070BD012ACFD970B5140C20D0B1FA81F43A
:10116000B2FA82F5C4F120046419B4F12006D6D392
:10117000B2405FF00044F440002502E052085FEA0C
:101180003303C61A71EB020E24BF30467146644128
:101190006D41F3D302000B002000290070BD0C4606
:1011A000B1FBF2F102FB11452D0445EA1045B5FBF8
:1011B000F2F402FB145580B240EA0545B5FBF2F0AB
:1011C00002FB105240EA044070BD000062B38B077E
:1011D00008D0521E11F8013B00F8013B00F02480BA
:1011E0008B07F6D1830740F0208000BF103A07D369
:1011F00030B4B1E83810103AA0E83810F9D230BC59
:10120000530724BFB1E80810A0E8081044BF51F804
:10121000043B40F8043BD20724BF31F8022B20F8EE
:10122000022B44BF0B7803707047083A07D3B1E82C
:101230000810083A40F8043B40F804CBF7D25307B3
:10124000E4E730B4436803F0004201211B031B0BA9
:10125000436004BF0368002B08D10DE00368DD0F75
:1012600045EA440444605B000360491E4468E302AD
:10127000F4D523031B0B436043681A4342600846BE
:1012800030BC70474FF4001C1CEB410F94BF1CEBAB
:10129000430F09E041EA030C50EA4C0C52EA0C0CF3
:1012A00003D2994208BF9042704714BF8B428242DA
:1012B00070470000B0B581EA030C0CF0004C40F21E
:1012C000FF7515EA11541DBF15EA1357AC42AF4222
:1012D00039E0E41923EA455343F48013C90241F08D
:1012E000004141EA505EC7021100A7FB020200283C
:1012F0004FF00000EEFB01204FF00001E3FB07215F
:1013000018BF42F00102401800214941E3FB0E01E1
:10131000A4F580640F0302D252004041494154F1C8
:1013200001046CDD470872F1004250F1000051EBFE
:101330000451A1F580115CBF41EA0C01B0BD4CEA3B
:1013400005510020B0BD05EA1357AC4214BFAF42AF
:1013500041E050EA410E1CBF52EA430E02E06146F2
:101360000020B0BD24423C441BD15FEA070EF6D0FA
:10137000090302BF01460020AEF1140EB1FA81F755
:10138000AEEB070401FA07FE0C37C7F1200100FAA3
:1013900007F7C8404EEA000E23EA455343F4801392
:1013A000A2E733F00043B3FA83F704BFB2FA82FE38
:1013B00077440B3FE41BB7F1200E2FBF02FA0EF368
:1013C000BB40C7F1200E22FA0EFE38BF43EA0E03DF
:1013D000BA40641C82E750EA410E14BF52EA430E41
:1013E0006FF000014FF4001717EB430F8ABF194647
:1013F00017EB410FB5E74CEA05510020B0BDD4F121
:101400000104B4F120070FDAC4F12007520828BF05
:1014100042F0010210FA07F501FA07F7E1BF2A438B
:10142000E0403843E1400FE0352C98DCC7F1200460
:1014300052EA400220FA07F218BF42F0010231FAE4
:1014400007F0A1400A43002172F1004250F1000070
:1014500051EB0C01B0BD0000F0B540F2FF7581EA20
:10146000030C0CF0004C15EA11541DBF15EA13577C
:10147000AC42AF42E5E0BC41C1F31301C3F3130337
:10148000801A994143F4801304D2641E40004941FC
:1014900080185941C90241EA5051B1FBF3F603FBF0
:1014A0001611A2FB0675D7EBC020A94102D2761E09
:1014B00080185941C90241EA5051B1FBF3FE03FBC8
:1014C0001E11A2FB0E75D7EBC020A94103D2AEF1CD
:1014D000010E80185941890241EA9051760546EA89
:1014E0008E2EB1FBF3F603FB1611A2FB0675D7EBAC
:1014F0008020A94102D2761E80185941C90241EAD2
:1015000050514EEA060EB1FBF3F603FB1611A2FB97
:101510000675D7EBC020A94102D2761E801859412A
:10152000C90241EA5051B1FBF3F703FB1711A2FBCB
:101530000735D3EBC020A94167F100070CBF00427B
:1015400047F0010766F3D5274FEA1E31B80814F5B6
:10155000806412DDBD0775F1004250EB0E5051EB77
:10156000045111F5801F5CBF41EA0C01F0BD4CF045
:101570007F6141F0E0410020F0BDBD076D0840EA09
:101580000E5041F48011D4F10104B4F120060ADABE
:10159000C4F120060200E04001FA06F3E1401843DE
:1015A000B24015430EE0342C13DCC6F1200445EAAA
:1015B00040056D0820FA06F2154321FA06F0A14015
:1015C0000D43002175F1004250F1000051EB0C0178
:1015D000F0BD00205FEA0C01F0BDCFB992185B416D
:1015E000B3FA83F704BFB2FA82F6BF190B3FB7F123
:1015F00020062FBF02FA06F3BB40C7F1200622FAED
:1016000006F638BF3343BA401CB1E419641E33E711
:101610007F4231F00041B1FA81F404BFB0FA80F6A4
:10162000A4190B3CB4F120062FBF00FA06F1A1402B
:10163000C4F1200620FA06F638BF3143A0403C1B17
:101640001AE7AC421ABF05EA1357AF4212E050EA5C
:1016500041061CBF52EA4306BFE750EA4107304645
:1016600061461CBF41EA0551F0BD52EA430C08BF78
:10167000C143F0BD00204FF4001616EB410F98BF98
:1016800016EB430F08BF16EB410F24BFC14305E023
:1016900016EB430F0CBF61464CEA0551F0BD00004C
:1016A000400D40EAC120490080F00D8040F000402C
:1016B000490DA1F58061491C05D4D1F11F0154BF2A
:1016C000C840C01770474FF000007047010040F15C
:1016D0000980F446404200F005F851F000416047AF
:1016E000010000BF09D0B0FA80F18840C91CC1F5E3
:1016F0008461090501EBD0214005704770B44FF0BB
:10170000004591EA030F44BF6B4000F001B900BFF0
:10171000841A71EB030604D26E40001BB14112190A
:1017200073414FF4001C1CEB410F34BF7CEB4306AC
:1017300084E00C0DA4EB1356362E7DDC012E43DC29
:1017400045EAC32343EA525312BFD20292025B0816
:10175000240545EAC12141EA5051D2EBC02099410C
:1017600025D407D1B0FA80F610FA06F164D0002033
:10177000203608E0B1FA81F6B140C6F1200220FA25
:1017800002F21143B0404FEAF474B4EB465434F023
:1017900001064FEA74040AD8D6F50016760D04F057
:1017A0000044F04061FA06F25040F1404840C00A5F
:1017B00040EA415021F0004128BF5FEA500550F156
:1017C000000044EBD12137E045EAC323DB0A45EAB8
:1017D000C121C90AB6F120050EDD42EA0242120C0F
:1017E000C5F1200603FA06F6EB4042EA06056D4213
:1017F000984161F100010DE062FA06F5F2405540B2
:1018000063FA06FC82EA0C02F3405A406D429041B2
:1018100061EB030111F4801F05D1641E620502D043
:101820006D004041494121F48011430875F10043A6
:1018300050F1000041EB045170BC70471CEB410FAC
:1018400015D223F0004352EA43060BD04FEA4C0C6A
:10185000BCEB410F04D80C0D661E342EB7DDEBE750
:10186000801A994150EA410608BF0021E4E708BF09
:101870001CEB430F28BF6FF00001DDE780B5134874
:1018800000F0B0F80FF24801016041608160C16072
:101890000161416181610FF23C0242628162C16279
:1018A000016341630FF2300282630FF23402C263BC
:1018B0000164416401BD10B5044800F093F804468A
:1018C000206808B9FFF7DAFF204610BDFC24FF1F8F
:1018D000000000002E00000066616C7365000000CF
:1018E000747275650000000091FBF2F303FB1211A6
:1018F000C0E90031704700007047000070B44FF03D
:10190000004591EA030C44BF6B40FFF701BF00BFE5
:10191000841A71EB030603D2001BB1411219734103
:101920004FF4001C1CEB410F34BF7CEB430443E03D
:101930000C0DA4EB1356352E50DC45EAC323DB0A0D
:1019400045EAC121C912B6F120050DDD63FA05F69D
:10195000EB4086EA0305124218BF45F00105C018A6
:1019600051F100010CD213E062FA06F5F240554045
:10197000F3415A40B340F3405A408018594107D3CD
:1019800049085FEA30005FEA350528BF45F00105E8
:1019900001F58011420875F1004250F1000041EB61
:1019A000045170BC4FF4001C1CEB410F38BF704752
:1019B0000020090D090570471CEB410F10D252EAB7
:1019C00043060BD0BCEB410F05D80C0DAB43661E94
:1019D000342EB5DD02E0AB438018594170BC70472E
:1019E00070BC70477047000001010000500000000B
:1019F0005000000000000000000000000000000097
:101A000000000000000000000000000000000000D6
:101A100000004E6F6E4D61736B61626C650000007B
:101A200000486172644661756C740000000000003B
:101A30004D656D4D616E6167656D656E7400004248
:101A400075734661756C74000000000000005573EA
:101A50006167654661756C7400000000000000005D
:101A60000000000000000000000000000000000076
:101A70000000000000000000000000000000000066
:101A80000000000000000000000000000000000056
:101A9000000000000000000000535643616C6C0021
:101AA000000000000000000044656275674D6F6E25
:101AB00069746F7200000000000000000000000068
:101AC00000000000000050656E64535600000000E6
:101AD00000000000005379735469636B000000003C
:101AE00000000000444D41300000000000000000F4
:101AF000000000444D4131000000000000000000E3
:101B00000000444D413200000000000000000000D1
:101B100000444D41330000000000000000000000C0
:101B2000444D41340000000000000000000000446B
:101B30004D41350000000000000000000000444D51
:101B400041360000000000000000000000444D414C
:101B5000370000000000000000000000444D413844
:101B60000000000000000000000000444D4139006A
:101B700000000000000000000000444D4131300032
:101B8000000000000000000000444D413131000021
:101B90000000000000000000444D41313200000010
:101BA00000000000000000444D41313300000000FF
:101BB000000000000000444D4131340000000000EE
:101BC0000000000000444D413135000000000000DD
:101BD00000000000444D415F4572726F72000000CA
:101BE0000000004D434D0000000000000000000018
:101BF00000004654464C00000000000000000000B9
:101C000000526561645F436F6C6C6973696F6E004D
:101C10004C56445F4C565700000000000000004C3A
:101C20004C57000000000000000000000000576159
:101C3000746368646F6700000000000000524E4744
:101C400000000000000000000000000049324330A6
:101C50000000000000000000000000493243310095
:101C60000000000000000000000053504930000058
:101C70000000000000000000005350493100000047
:101C80000000000000000000535049320000000036
:101C90000000000000000043414E305F4F525F4D96
:101CA000425F6275660043414E305F4275735F4F1D
:101CB000666600000043414E305F4572726F7200ED
:101CC0000000000043414E305F54785F5761726EF0
:101CD000696E6743414E305F52785F5761726E693B
:101CE0006E6743414E305F57616B655F5570000012
:101CF000005265736572766564353100000000003E
:101D000052657365727665643532000000000043E9
:101D1000414E315F4F525F4D425F627566004341F5
:101D20004E315F4275735F4F666600000043414E5F
:101D3000315F4572726F72000000000043414E3106
:101D40005F54785F5761726E696E6743414E315FD1
:101D500052785F5761726E696E6743414E315F57CB
:101D6000616B655F55700000005265736572766542
:101D70006435390000000000526573657276656451
:101D80003630000000000055415254305F52585F19
:101D900054580000000055415254305F45525200E3
:101DA000000000000055415254315F52585F5458B2
:101DB0000000000055415254315F4552520000006E
:101DC00000000055415254325F52585F5458000091
:101DD000000055415254325F45525200000000004D
:101DE0000055415254335F52585F54580000000070
:101DF00055415254335F45525200000000000055D7
:101E0000415254345F52585F54580000000055410D
:101E10005254345F455252000000000000554152B8
:101E200054355F52585F54580000000055415254D9
:101E3000355F45525200000000000041444330002D
:101E40000000000000000000000041444331000099
:101E5000000000000000000000434D503000000072
:101E60000000000000000000434D50310000000061
:101E700000000000000000434D5032000000000050
:101E800000000000000046544D300000000000003B
:101E9000000000000046544D31000000000000002A
:101EA0000000000046544D32000000000000000019
:101EB000000000434D54000000000000000000003E
:101EC0000000525443000000000000000000000029
:101ED0000052657365727665643833000000000057
:101EE0005049543000000000000000000000005085
:101EF000495431000000000000000000000050497B
:101F0000543200000000000000000000005049545E
:101F10003300000000000000000000005044423088
:101F20000000000000000000000000555342300097
:101F300000000000000000000000555342444344EC
:101F4000000000000000000000454E45545F3135A0
:101F500038385F54696D6572454E45545F547261FF
:101F60006E736D69740000454E45545F526563653C
:101F7000697665000000454E45545F4572726F7288
:101F80000000000000493253300000000000000053
:101F9000000000005344484300000000000000001F
:101FA0000000004441433000000000000000000039
:101FB0000000444143310000000000000000000028
:101FC00000545349300000000000000000000000F1
:101FD0004D43470000000000000000000000004CDE
:101FE0005054696D657200000000000000005265E9
:101FF00073657276656431303200000000504F52D4
:10200000544100000000000000000000504F5254F6
:102010004200000000000000000000504F525443F6
:1020200000000000000000000000504F5254440027
:10203000000000000000000000504F525445000016
:102040000000000000000000526573657276656450
:102050003130380000000052657365727665643176
:102060003039000000005265736572766564313165
:10207000300000000052657365727665643131315D
:10208000000000005265736572766564313132007C
:10209000000000526573657276656431313300006B
:1020A000000052657365727665643131340000005A
:1020B0000052657365727665643131350000000049
:1020C00052657365727665643131360000000052E6
:1020D00065736572766564313137000000005265C2
:1020E00073657276656431313800000000526573A3
:1020F000657276656431313900000000008003406C
:102100000090034000800B4000F00F4040F00F4073
:1021100080F00F40C0F00F4000F10F40F0000A1DAA
:102120003000180032001801600018186400181AF6
:102130006E00181F780013187D00131A8200131CFC
:102140008C000E1296000E15A0000E18AA000E1B91
:10215000B4000E1EC8000C1CE1000B1EFA000A1F82
:10216000000109080090044000A0044000B00440B1
:1021700000C0044000D0044000A0064000B006406B
:1021800000C0064000D0064000A00E4000B00E4047
:10219000D2004A01760204006A6E6B6C676D4E4F86
:1021A00034353637010000000DC1110009030CD091
:1021B0001240173F185019031A783200A00A63E042
:1021C000ACFF650C6600670029142C1E2A007E0CEB
:1021D0007F16802A814E8261836F847B8586868EFE
:1021E000879788A489AF8AC58BD78CE88D204A0051
:1021F000491347084B144C17460522992303A6049C
:102200009B009CFFAB069E119F0200003100000066
:1022100002040101A024FF1FF024FF1FA024FF1FC0
:10222000A024FF1FA024FF1F750CFF1F5C0CFF1FC5
:10223000000000000000000000000000000000009E
:10224000000000000000000000000000000000008E
:102250000000000080B500F079FB4FF41672DFF843
:102260006415DFF8640500F013FC00F003F800F0DB
:10227000C2F901BD38B500F097F9DFF850052C21FF
:102280000160DFF84C0501210170DFF8440500789A
:10229000002800F0DB80DFF83C050068401CDFF818
:1022A00034150860DFF8300528210160DFF82805C3
:1022B000006804285AD3DFF820050068DFF80C1501
:1022C00009685022DFF8003502FB0131405CDFF87D
:1022D00008150968DFF8F42412685023DFF8E84491
:1022E00003FB0242891811F8011C401AFF282AD169
:1022F000DFF8E4040068DFF8D41409685022DFF83E
:10230000C83402FB0131401810F8010CDFF8C81482
:102310000968DFF8B82412685023DFF8AC4403FBE7
:102320000242891811F8031C401A002806D1DFF870
:10233000A8040068401EDFF8A4140860DFF8A004B9
:102340000121017012E0DFF890040068401EDFF800
:102350008C140860DFF8880400210170DFF878042D
:102360000068401EDFF8701408609FE7DFF868041B
:1023700028210160DFF8600400684E285ED2DFF893
:1023800054040068401CDFF84C140860DFF848046F
:102390000068DFF8381409685022DFF82C3402FB9B
:1023A0000131405CDFF830140968DFF8202412683E
:1023B0005023DFF8144403FB024289184978401A7D
:1023C000FF2828D1DFF810040068DFF8001409683E
:1023D0005022DFF8F43302FB013140184078DFF877
:1023E000F8130968DFF8E42312685023DFF8D843B4
:1023F00003FB02428918C978401A002806D1DFF889
:10240000D8030068401CDFF8DC130860DFF8D8034D
:102410000121017012E0DFF8C0030068401CDFF802
:10242000C4130860DFF8C00300210170DFF8A803BF
:102430000068401CDFF8A01308609BE7DFF89003FA
:102440000078401EDFF8881308701EE7DFF8840369
:102450000068DFF898130968401A152803DBDFF8D5
:10246000900301210160DFF8600390F8C00D00289F
:102470002ED0DFF8540390F8100E002828D0DFF893
:1024800070030068002823D0DFF84C0303210160AB
:10249000DFF84403006850281AD2DFF83C030068D4
:1024A000DFF8281309685022DFF81C3302FB0131E2
:1024B000405C002804D1DFF83C030121017007E0F3
:1024C000DFF814030068401CDFF80C130860DFE736
:1024D000DFF818030068DFF8FC120968401A1528B5
:1024E00003DBDFF8140301210160DFF8F00200686C
:1024F000DFF8F01209680818022190FBF1F0DFF80C
:10250000FC120870DFF8F40200782738DFF8F012C8
:102510000860DFF8EC020068FFF7D8F8DFF8E42283
:10252000DFF8E432FEF7C6FE04000D00DFF8DC023F
:10253000006A00F0F7FADFF8D822DFF8D832FEF7A9
:10254000B9FE22002B00FFF7D9F900F013FBAF49C9
:102550000862AE4800F06CFB00F094FBAE490860E6
:10256000AD480068FFF7B2F8AC4AAD4BFEF7A2FEEB
:102570000022AC4BFFF7C2F9FFF792F8AA490860B6
:10258000A948006840F23351884203D3A64840F27C
:1025900032510160A4480068B0F57F7F03D2A248A1
:1025A0004FF47F71016031BD8C48002101608D487E
:1025B00000210160924800210160904800210170D3
:1025C0009A48002101609A48002101600020884952
:1025D00000220A6085497F4A12680A607D4900220C
:1025E0000A60844900220A707D4901220A707E49EE
:1025F00001220A70704780B57E480078012840F0BB
:102600008E80724824210160704800682E2849D2CB
:1026100071480021016070480068502819D26E4846
:1026200000686A4909685022674B02FB0131405C2F
:10263000002808D1654800687E4911EB8000664992
:10264000096840F8901C64480068401C62490860B2
:10265000E1E76148502101605F480068002819D017
:102660005D480068594909685022574B02FB013107
:10267000405C002808D1554800686F4911EB800084
:102680005549096840F8901C53480068401E52495B
:102690000860E1E700F044F84C480068401C4B49F2
:1026A0000860B1E76548006865490968401A6549EE
:1026B0000968654A1268891A88420ADA5A4840F25B
:1026C000F23101606148012101704FF48C7000F01B
:1026D00016FB5C4800685C490968401A574909685C
:1026E000574A1268891A88420ADA4F4840F2325132
:1026F00001605648012101704FF48C7000F0FFFA20
:102700005248007801280AD135480078012806D1BE
:1027100035480078012802D136480021017001BDFA
:102720002A480068444911EB800050F8900C434956
:102730000968884208D3254800683F4911EB8000AA
:1027400050F8900C3D4908603D4800681F490968F1
:10275000394A12EB810151F8901C884208D31B487A
:102760000068354911EB800050F8900C344908603E
:10277000164800682F4911EB800050F8900C314941
:102780000968884208D3114800682A4911EB800083
:1027900050F8900C2B4908602B4800680B490968D9
:1027A000244A12EB810151F8901C884208D3074853
:1027B0000068204911EB800050F8900C2249086015
:1027C00070470000580EFF1FB010FF1F7023FF1F3F
:1027D000F524FF1F1824FF1F7423FF1F440EFF1F43
:1027E0001004FF1F480EFF1F1104FF1F2024FF1FAE
:1027F0001C24FF1FF624FF1F2424FF1FF424FF1FA7
:102800004C0EFF1FCDCCCCCCCCCCEC3F6424FF1FB6
:10281000989999999999B93F540EFF1F9A99999946
:102820009999F53F005C9240400EFF1F500EFF1F2C
:102830003024FF1FC823FF1F7823FF1F2824FF1FFA
:102840001404FF1F2C24FF1F1804FF1FF724FF1F71
:1028500010B440B241097A4A012310F01F04A3408A
:1028600042F8213010BC704710B440B24109754A9B
:10287000012310F01F04A34042F8213010BC704720
:1028800010B504007048046000F081F80028FBD007
:1028900000F002F8002010BDE0B5012002904FF4D6
:1028A00016700190002000902A236748026867494B
:1028B000002000F069FA664800684008400064495A
:1028C00008605820FFF7D0FF6248006850F0010010
:1028D000604908600020FFF7BBFF5F492A2000F035
:1028E00067FB5E49312000F063FB07BD80B55C48A3
:1028F00090F90000042818D159480321017058208C
:10290000FFF7B2FF57484FF48061016050480068FC
:1029100050F001004E49086052484FF48061016058
:10292000514849490968016005E05820FFF79CFFBC
:102930004B480221017001BD494801210170454801
:10294000006850F0010043490860704780B5444872
:102950000421017043485FF0FF3101605820FFF708
:1029600077FF3F4890F9000001280FD03C4890F9CC
:1029700000000228F5D13A48042101703B485FF07D
:10298000FF3101605820FFF763FFEAE701BD10B592
:1029900082B0002400208DF8000000F06EFB802142
:1029A000122000F07DFC002804D1314800F00AFD1F
:1029B000002043E0322000F0A2F90B22012100A800
:1029C00000F0A6FC002804D12A4800F0FBFC0020FF
:1029D00034E09DF80010284800F0F4FC2748017806
:1029E000274800F0EFFC9DF80000212825D10020A9
:1029F000040022480078A4B280B2844218D2A4B263
:102A0000204810EB44004178A4B21E4810F814008E
:102A100080B200F045FC002808D1A4B2194810F893
:102A20001410194800F0CEFC002007E0641CE0E719
:102A3000164800F0C7FC012000E0002016BD000091
:102A400000E100E080E100E09C24FF1F50F00F4017
:102A50000C800040248000400201020012010900A5
:102A6000CC0BFF1FA0A0044010900040A090044099
:102A7000D05D0000385E0000E05C0000340CFF1FF9
:102A8000585D0000D00BFF1FE85D0000045D0000F2
:102A9000F8B4234B1B88ADF8003005000C0016007D
:102AA000721E002E3AD026783300641CDBB2DE1191
:102AB00000AFF65D2E706D1CC3F38016F6B200AF4A
:102AC000F65D2E706D1CC3F34016F6B200AFF65DD6
:102AD0002E706D1CC3F30016F6B200AFF65D2E70BB
:102AE0006D1CC3F3C006F6B200AFF65D2E706D1C10
:102AF000C3F38006F6B200AFF65D2E706D1CC3F313
:102B00004006F6B200AFF65D2E706D1CDBB213F01E
:102B1000010600AFF65D2E706D1CC0E7F1BC70477A
:102B2000821000005FF0FF0C1CEAD05114BF614519
:102B300006E0C110400721F0E04101F1605170470B
:102B400079B900F0004100020AD0B0FA80FC00FA26
:102B50000CF001F16051A1EB0C5101EBD0214005CB
:102B6000704741020CBF40F4E0016FF0000100200B
:102B7000704700004FEAF17CBCF1E04C2CBFBCF583
:102B8000001F11E05FEA4C0C34BFBCF17F5F2EE008
:102B90005FEA9C0C4FEA0C1C4FEA3C0CC10071F13F
:102BA00000414CEB50707047C90241EA5051C002DD
:102BB00018BF41F0010141F000414FEA6C50C0F1F3
:102BC0000900212810D240EACC7CCCF1200C11FA6B
:102BD0000CF070F10040CCF1200C21FA0CF00CF05C
:102BE000004C40EB0C0070474FEACC707047490036
:102BF00011F5001F04D84FEACC10FF30C005704714
:102C0000C817704710B400240462002444620024F2
:102C100084620160426083600024C46000244461D7
:102C200000240461002484610024C46110BC704746
:102C300070B50400606A216A00F0D6FB60616069CB
:102C4000216900F0D1FBE061A169606900F040FCFE
:102C5000A0616169206800F07DFC0600A1696068E0
:102C600000F078FC310000F033FC0600E169A06858
:102C700000F070FC310000F02BFC05006069206161
:102C8000280070BD4100090E7F3915D4D1F11F0114
:102C900014D4400007D2C00140F00040C84048BFF3
:102CA0006FF000407047C00140F00040C8404CBF8A
:102CB0004FF00040404270470020704700424FF004
:102CC000004058BFC043704710B50400002C15D019
:102CD000B4F1807F03D329210F4800F0BCFC0F48DA
:102CE000002101600E4804600E48002101600B487D
:102CF0000521016009480068C003FBD510BD10B56F
:102D000004002000441E002804D007480068FFF794
:102D1000DBFFF6E710BD0000285A000010E000E0DD
:102D200014E000E018E000E09024FF1F2DE9F843D4
:102D300080460C005FEA981010F00700C0B25FEA0E
:102D400040194046103810F03F00C0B2C0000500E6
:102D500015EB09000700E4B217EBC400401E0600A3
:102D6000F6B2FFB2BE420DD3002200213800C0B23D
:102D700000F004FD4FF481713800C0B200F018F982
:102D80007F1CEDE7BDE8F1832DE9F84F04000D004D
:102D900016001F009DF92880DDF82C90DDF830A08A
:102DA0004FFA88F8B8F1000F02D15FF0010B11E083
:102DB0004FFA88F8B8F1010F02D15FF0020B09E079
:102DC0004FFA88F8B8F1020F02D15FF0040B01E06E
:102DD0005FF0100B4FFA88F8B8F1000F05D1674883
:102DE000854202D36648A84221D24FFA88F8B8F14A
:102DF000010F09D16148854206D36248A84203D336
:102E000015F00300032812D14FFA88F8B8F1020F29
:102E100009D15A48854206D35B48A84203D315F02E
:102E20000300002803D06121584800F014FCB9F5D4
:102E3000004F03D36321554800F00DFC544800684F
:102E400050F00200524908605248006850F00200F9
:102E50005049086064B260014F49455064B2600156
:102E600000F1804010F51040066164B2600100F18D
:102E7000804010F510400021818064B2600100F1B3
:102E8000804010F510405FFA8BFBA0F814B04FFAA9
:102E900088F85FEA082010F4E0604FFA88F818F02C
:102EA0000701084364B2610101F1804111F510414D
:102EB000C88064B2600100F1804010F510404946BE
:102EC0004904490CC18264B2600100F1804010F5F0
:102ED000104049464904490CC1833048006830F02D
:102EE00080002E49086064B2600100F1804010F556
:102EF00010405FFA8BFBC0F808B064B2600100F1CB
:102F0000804010F510400021C1605FEACA7002D411
:102F1000D9F1000000E0002064B2610101F18041BC
:102F200011F51041886164B2600100F1804010F534
:102F300010404CF20A018183FFB27809313050F021
:102F4000800064B21649605416493800C0B200F0DF
:102F50002FF85946C9B22800FFF7E8FE124800686A
:102F60000121A140884310490860104800680121F0
:102F7000A14008430D490860BDE8F18F10F00F40F3
:102F800013F10F4012F10F4010F10F40805A000072
:102F9000408004403C80044000900040008000409D
:102FA00000100240000101000C800040248000401D
:102FB00010B4294A12684FF40073C0B24409A34008
:102FC0001A43254B1A60C0B24211244B53F82220F9
:102FD000012310F01F04A340C2F8A030C0B210F0CB
:102FE0001F02C0B243111D4C54F8233043F8221085
:102FF00010BC704710B4184A12684FF40073C0B286
:103000004409A3401A43144B1A60C0B24211134B37
:1030100053F82220012310F01F04A340C2F8A0306F
:1030200031F4E061C0B210F01F02C0B243110B4C8A
:1030300054F8233053F8222012F4E0621143C0B256
:1030400010F01F02C0B24311044C54F8233043F86F
:10305000221010BC70470000388004408C0BFF1F0A
:1030600001B4BDF80000002805D0BDF80000401EE6
:10307000ADF80000F5E701B0704780B501220121ED
:10308000372000F07BFB01220121342000F076FB89
:1030900023213720FFF7AEFF23213420FFF7AAFFBB
:1030A00001BD80B57A48012101607A4801210160A3
:1030B0004FF4C870FFF7D4FF7748002101607748CC
:1030C0000068002804D1744801210160002016E046
:1030D0007148012101606E48002101604FF4C87001
:1030E000FFF7BEFF6B48002101606C4800680028B4
:1030F00004D0694801210160002000E0012002BDE8
:1031000080B56448002101606148002101604FF4EE
:10311000C870FFF7A5FF5F48012101604FF4C87038
:10312000FFF79EFF5A48012101604FF4C870FFF776
:1031300097FF01BD80B55748002101604FF4C8706A
:10314000FFF78EFF5248002101604FF4C870FFF76F
:1031500087FF5048012101604FF4C870FFF780FFDE
:103160004C48002101604FF4C870FFF779FF01BDA2
:1031700080B54848002101604FF4C870FFF770FF28
:103180004348012101604FF4C870FFF769FF4148CF
:10319000012101604FF4C870FFF762FF3D48002134
:1031A00001604FF4C870FFF75BFF01BD80B539487F
:1031B000002101603848002101604FF4C870FFF71A
:1031C0004FFF3448012101604FF4C870FFF748FFFA
:1031D00032480068002807D02F48012101602D489F
:1031E00000210160002006E02B48012101602948F0
:1031F00000210160012002BD38B50500082420002F
:10320000441EC0B2002818D0280603D5204801214A
:10321000016002E01E48002101606D004FF4C8709B
:10322000FFF71EFF1B48012101604FF4C870FFF734
:1032300017FF184800210160E1E731BD38B50824C7
:1032400000251548002101602000441EC0B200285E
:1032500015D06D000F48002101604FF4C870FFF7D2
:10326000FFFE0C48012101604FF4C870FFF7F8FE23
:103270000A4800680028E7D055F00105E4E7064851
:1032800001210160034800210160EDB2280032BD38
:103290005008FE435C08FE43D00AFE43500AFE433A
:1032A00070B504000D0000262900C9B2200080B2CC
:1032B00000F00AF8002805D1761CF6B2142EF3D1DE
:1032C000002000E0012070BD38B504000D00FFF7BC
:1032D000E8FE002801D1002019E04220FFF78CFF12
:1032E000FFF764FF002803D1FFF70AFF00200EE07C
:1032F0002000C0B2FFF780FFFFF758FF2800C0B2E0
:10330000FFF77AFFFFF752FFFFF7FAFE012032BD09
:10331000F8B504000D00160000273200D2B22900D3
:1033200089B2200000F00AF8002805D17F1CFFB206
:103330001E2FF2D1002000E00120F2BD70B5040084
:103340000D001600FFF7ADFE002801D1002037E088
:103350004220FFF751FFFFF729FF002803D1FFF7B5
:10336000CFFE00202CE03000C0B2FFF745FFFFF792
:103370001DFFFFF7C5FEFFF794FE002801D10020D6
:103380001EE04320FFF738FFFFF710FF002803D1AE
:10339000FFF7B6FE002013E0ADB2002D0DD0FFF711
:1033A0004DFF2070ADB2012D02D1FFF7E1FE01E02B
:1033B000FFF7C0FE641C6D1EEEE7FFF7A1FE0120C3
:1033C00070BD00000EB400B582B003A900910246A2
:1033D00000AB0121034878440A30FDF71DF806BC14
:1033E0005DF810FB1D2A000090EA010F44BF81F038
:1033F000004100F075B800BF431A4FF000423EBFD5
:103400005340C01AC91800BFD3095FEAD05C13EB60
:10341000400F34BFB3EB410F40E07CEBD1530CD3F2
:1034200042EA012122D8D1EB402009D3400A28BF2B
:103430005FEA500140EBCC507047401A15D0400273
:10344000B0FA80F2521C9040400A4FEA3C23B3EBA2
:10345000026384BF00EB730007E040F400001A161B
:10346000DB07C2F10102D04018437047182BFCDC87
:1034700031FA03F202FA03F3591A38BF42F001029B
:10348000D2EB40203CBF4000ACF1010C5FEACC5CC9
:10349000C20572F100414CEB5020704713EB400F16
:1034A0000FD24B0009D0ACEBD153022B03DB490206
:1034B000172BDDDD70479143401A4300D5D1002022
:1034C000704713EB410FD0D36FF00000704700003E
:1034D00090EA010F44BF81F00041FFF78DBF00BFAC
:1034E000421A3CBF801A89184FF0004CC0F3C752F3
:1034F000FF2A24D0C1F3C75313B3D21AD2F1190350
:1035000027DD4CEA01214CFA03F321EA0303D14001
:10351000C20D4CEA0020401834BF20EA0C004CEAEF
:103520005000D20553EA006373EB0C0C52EB1020F1
:10353000420012F1807F38BF7047C00DC005704750
:10354000490212BF9A4200EB5120F8E7D2F117036B
:10355000D9D57047FF2212EAD05C1DBF12EAD153C1
:10356000944593422BE09C44D30780EA01021A4021
:1035700043EA002043EA0121A1FB0030410038BFAB
:1035800040007CF17F010BDBFE294ADA5B0842EA4E
:10359000C15153EA006373F1004C51EB10207047A6
:1035A000D1F1080CDCF120012FDB5B0810FA01F1EE
:1035B0000B4373F1004120FA0CF0504170479445E1
:1035C0001CBF02EAD153934280EA010202F000429A
:1035D0001DD0400019D0490017D05BB9634514D005
:1035E0000902B1FA81F39940BCEB030CC00140F031
:1035F0000040C1E70002B0FA80FC10FA0CF0B3EB17
:103600000C0CC90141F00041B6E7100070474000C2
:103610000AD0490008D010F1807F94BF11F1807F5B
:1036200002E042F0FF407047D0437047DFF800F0FF
:10363000A90CFF1FDFF800F0D90CFF1FBFF34F8F5D
:103640004648006810F4E060454908434349086073
:10365000BFF34F8FFEE738B504000D00002000F0E7
:1036600021F92A0021003F48FFF7ACFE002000F0BE
:1036700036F94FF47A70FFF742FBF2E738B50400F1
:103680000D00210049B2042000F050FA200032BDA4
:1036900010B50024042000F063FA042000F096FA2C
:1036A000002841D1002000F0FDF8042000F08EFA3F
:1036B000012801D101200400002000F010F92A485F
:1036C000FFF780FE4FF4FA70FFF719FBE4B2012C0C
:1036D000EBD1042000F07AFA0028E6D1042000F0B3
:1036E00075FA002806D1002000F0F9F86420FFF7F1
:1036F00006FBF3E7042000F069FA012806D1002058
:1037000000F0EDF83220FFF7FAFAF3E71748FFF779
:1037100059FEFFF78BFF6420FFF7F1FA0020FFF757
:1037200089FFFFF78BFFC0E710BD10B51048046894
:10373000012000F0B7F8012000F0D1F8E4B20F202A
:103740000C4900FB0412E4B221000B48FFF73AFEDB
:103750004FF47A70FFF7D3FAEDE700000CED00E0CC
:103760000400FA05BC5C0000245E0000385D000027
:1037700004ED00E01C04FF1F205C000070B5040095
:103780000D0016004FF480712000C0B2FFF710FC4E
:103790006DB2002D11D1E4B26011404951F8200002
:1037A000E4B261113D4A52F821104969012214F036
:1037B0001F039A409143416136E0E4B260113749FA
:1037C00051F82000E4B26111344A52F821104969DD
:1037D000012214F01F039A4011434161F6B2002EFA
:1037E00011D1E4B260112D4951F820000068012187
:1037F00014F01F0291408843E4B26111274A52F845
:103800002110086010E0E4B26011244951F8200052
:103810000068012114F01F0291400843E4B26111D5
:103820001E4A52F82110086070BD10B50400E4B2C1
:1038300060111A4951F82000406914F01F01C84076
:10384000C00703D47B211648FFF705FFE4B26011DF
:10385000124951F82000012114F01F029140C1606B
:1038600010BD10B50400E4B260110C4951F82000FD
:10387000406914F01F01C840C00703D58C210848D7
:10388000FFF7E9FEE4B26011044951F82000006935
:1038900014F01F01C84010F0010010BD300BFF1FD5
:1038A000285B000010B5040064B2042C07DA012282
:1038B000012164B21648205CFFF760FF0EE004208F
:1038C00004002000441E40B2002807D0012201213C
:1038D00064B20F48205CFFF751FFF2E710BD10B54E
:1038E000040064B2042C05DA64B20948205CFFF7D6
:1038F0009CFF0CE0042004002000441E40B200287D
:1039000005D064B20248205CFFF78FFFF4E710BDDA
:10391000C80BFF1F2DE9F84304000D0064B2002C12
:1039200008D0022C2CD018D3042C4FD03BD3052C1C
:103930005FD071E0DFF81002006850F48060DFF8BB
:10394000081208604FF440716620FFF731FB4FF416
:1039500040716720FFF72CFB5EE0DFF8EC010068A8
:1039600050F40060DFF8E01108604FF4407143202C
:10397000FFF71EFB4FF440714420FFF719FB4BE0AB
:10398000DFF8C401006850F48050DFF8BC11086013
:103990004FF440716320FFF70BFB4FF4407162203E
:1039A000FFF706FB38E0DFF8A001006850F4005094
:1039B000DFF8941108604FF440715020FFF7F8FAD7
:1039C0004FF440715120FFF7F3FA25E0DFF87C0156
:1039D000006850F48060DFF8741108604FF44071A3
:1039E0004E20FFF7E5FA4FF440714F20FFF7E0FA61
:1039F00012E0DFF85801006850F40060DFF84C1165
:103A000008604FF440718920FFF7D2FA4FF44071FB
:103A10008820FFF7CDFAFFE764B2DFF8340150F8F1
:103A20002400C07810F0F30064B2DFF8241151F8DC
:103A30002410C87064B2DFF8180150F8240064B292
:103A4000DFF80C1151F824108978817064B2002CD1
:103A500002D064B2012C07D1DFF8F80000684FF4FF
:103A60007A714843814606E0DFF8EC0000684FF4C5
:103A70007A71484381462801B9FBF0F00600B6B2DE
:103A8000B6F5005F02DB41F6FF700600B9FBF5F00A
:103A9000B6B2B0EB06100700BFB2202F03DBDC216B
:103AA0002E48FFF7D8FD64B2294850F8240000786A
:103AB00010F0E0008046B6B2300A10F01F0050EA65
:103AC000080064B2224951F82410087064B22048FA
:103AD00050F82400467064B21D4850F82400807AE3
:103AE00010F0E000804664B2194850F8240017F046
:103AF0001F0151EA0801817264B2154850F8240090
:103B0000007C50F0880064B2114951F82410087408
:103B100064B20F4850F82400C07850F00C0064B232
:103B20000B4951F82410C870BDE8F18340B2084A2F
:103B300052F8202012791206F8D540B2044A52F801
:103B40002020D17170470000348004402880044058
:103B5000A00BFF1F9024FF1F9824FF1F7C5B000019
:103B600010B5040064B2082C0DDA0022002164B202
:103B70002148205CFFF702FE032164B21E48205C4E
:103B8000FFF738FA14E0082004002000441E40B279
:103B900000280DD00022002164B21748205CFFF7F6
:103BA000EDFD032164B21448205CFFF723FAECE733
:103BB00010BD10B5040064B20F48205CFFF751FE41
:103BC000002801D1002000E0012010BD10B5040044
:103BD000200040B2FFF7EDFF00280AD10A20FFF7CE
:103BE0008EF8200040B2FFF7E4FF002801D100204A
:103BF00000E0012010BD0000C00BFF1F000000000E
:103C0000000000000000000000000000000000F8BC
:103C100000000000000000333000000000100C061F
:103C2000100C0600000000000000000040C07840BA
:103C3000C0784000043F04043F040400007088FC86
:103C400008300000001820FF211E0000F008F000DE
:103C5000E018000000211C031E211E0000F008884F
:103C6000700000001E2123241927211010160E00B9
:103C7000000000000000000000000000000000E064
:103C80001804020000000007182040000002041879
:103C9000E00000000040201807000000404080F0D5
:103CA000804040000202010F01020200000000F00B
:103CB000000000000101011F0101010000000000DF
:103CC0000000000080B07000000000000000000054
:103CD00000000000000101010101010100000000DD
:103CE0000000000000303000000000000000000074
:103CF00080601804006018060100000000E0100851
:103D00000810E000000F102020100F00001010F825
:103D1000000000000020203F202000000070080864
:103D200008887000003028242221300000300888E4
:103D3000884830000018202020110E000000C0200C
:103D400010F8000000070424243F240000F808882D
:103D5000880808000019212020110E0000E01088BA
:103D600088180000000F112020110E0000380808EC
:103D7000C83808000000003F0000000000708808FC
:103D800008887000001C222121221C0000E010087D
:103D90000810E0000000312222110F00000000C0D6
:103DA000C000000000000030300000000000008073
:103DB0000000000000008060000000000000804063
:103DC000201008000001020408102000404040407C
:103DD00040404000040404040404040000081020CF
:103DE0004080000000201008040201000070480814
:103DF0000808F0000000003036010000C030C8287C
:103E0000E810E0000718272423140B000000C03836
:103E1000E0000000203C23020227382008F88888B0
:103E200088700000203F202020110E00C0300808BC
:103E300008083800071820202010080008F8080893
:103E40000810E000203F202020100F0008F888888C
:103E5000E8081000203F20202320180008F8888858
:103E6000E8081000203F200003000000C0300808D0
:103E70000838000007182020221E020008F8080059
:103E80000008F808203F210101213F20000808F820
:103E9000080800000020203F202000000000080843
:103EA000F8080800C08080807F00000008F888C003
:103EB00028180800203F20012638200008F80800B4
:103EC00000000000203F20202020300008F8F800EB
:103ED000F8F80800203F003F003F200008F830C0FD
:103EE0000008F808203F200007183F00E0100808ED
:103EF0000810E0000F10202020100F0008F808081C
:103F00000808F000203F210101010000E01008082E
:103F10000810E0000F18242438504F0008F8888853
:103F200088887000203F2000030C30200070880833
:103F3000080838000038202121221C00180808F841
:103F4000080818000000203F2000000008F80800C2
:103F50000008F808001F202020201F000878880093
:103F600000C83808000007380E010000F80800F803
:103F70000008F800033C0700073C030008186880AD
:103F80008068180820302C03032C30200838C80023
:103F9000C83808000000203F200000001008080872
:103FA000C83808002038262120201800000000FE14
:103FB000020202000000007F40404000000C30C0C0
:103FC00000000000000000010638C00000020202EC
:103FD000FE000000004040407F000000000004029E
:103FE00002020400000000000000000000000000C9
:103FF00000000000808080808080808000020204B9
:1040000000000000000000000000000000008080B0
:10401000808000000019242222223F2008F800801E
:1040200080000000003F112020110E0000000080E1
:1040300080800000000E1120202011000000008070
:104040008088F800000E112020103F2000008080A2
:1040500080800000001F222222221300008080F0B6
:10406000888888180020203F2020000000008080E1
:1040700080808000006B94949493600008F8008026
:1040800080800000203F210000203F200080989881
:10409000000000000020203F2020000000000080E1
:1040A0009898000000C08080807F000008F8000021
:1040B00080808000203F24022D302000000808F876
:1040C000000000000020203F202000008080808031
:1040D00080808000203F20003F20003F80800080C3
:1040E00080800000203F210000203F2000008080D1
:1040F00080800000001F202020201F008080008082
:104100008000000080FFA12020110E000000008030
:1041100080808000000E112020A0FF808080800021
:104120008080800020203F2120000100000080804E
:10413000808080000033242424241900008080E043
:10414000808000000000001F202000008080000010
:1041500000808000001F202020103F2080808000F1
:104160000080808000010E30080601008080008001
:10417000008080800F300C030C300F000080800026
:10418000808080000020312E0E3120008080800051
:104190000080808080818E70180601000080808001
:1041A000808080000021302C22213000000000009F
:1041B000807C020200000000003F40400000000040
:1041C000FF00000000000000FF0000000002027C71
:1041D000800000000040403F000000000006010198
:1041E0000202040400000000000000000821DFF8C3
:1041F0002C2501231360DFF82825002313600A0013
:10420000511ED2B2002A15D0020604D5DFF81425BB
:104210000123136003E0DFF80C2500231360DFF8AF
:1042200000250123136000BFDFF8F424002313608E
:104230004000E4E7704700000821DFF8E024002395
:104240001360DFF8DC24002313600A00511ED2B291
:10425000002A15D0020604D5DFF8C8240123136014
:1042600003E0DFF8C02400231360DFF8B424012347
:10427000136000BFDFF8A824002313604000E4E7C8
:10428000704738B504000D00B5F15000C0B2FFF71B
:10429000D3FFE4B2200950F01000C0B2FFF7CCFF0A
:1042A00014F00F0050F00100C0B2FFF7C5FF31BDA0
:1042B00070B5040000200500EDB2082D17DAB5F145
:1042C0005000C0B2FFF7B8FF0120FFF7B5FF102084
:1042D000FFF7B2FF00200600F6B2802E05DA2000BC
:1042E000C0B2FFF783FF761CF6E76D1CE4E770BDF4
:1042F00080B2002809D04FF47A5211000A00511EF2
:1043000092B2002AFAD1401EF2E7704780B501222E
:1043100001212B20FFF732FA012201216E20FFF745
:104320002DFA012201213020FFF728FA0022012175
:104330006420FFF723FA002201216F20FFF71EFA05
:10434000DFF8DC0301210160DFF8DC0300210160FC
:10435000DFF8D803002101603220FFF7C9FFDFF842
:10436000CC0301210160AE20FFF766FF0020FFF7BC
:1043700063FF1020FFF760FF4020FFF75DFF812003
:10438000FFF75AFFCF20FFF757FFA120FFF754FF99
:10439000C820FFF751FFA620FFF74EFFA820FFF728
:1043A0004BFF3F20FFF748FFD320FFF745FF0020DA
:1043B000FFF742FFD520FFF73FFF8020FFF73CFFCC
:1043C000D920FFF739FFF120FFF736FFDA20FFF79A
:1043D00033FF1220FFF730FFDB20FFF72DFF4020D7
:1043E000FFF72AFF2020FFF727FF0220FFF724FF17
:1043F0008D20FFF721FF1420FFF71EFFA420FFF7F9
:104400001BFFA620FFF718FFAF20FFF715FF0020C6
:10441000FFF74EFF00210020FFF733FF01BD2DE91C
:10442000F84304000D00160000275FF000085FF05D
:1044300000095FFA89F919F80600002842D05FFAEE
:1044400089F919F8060020380700E4B2792C02DB5C
:10445000002004006D1C2900C9B22000C0B2FFF783
:1044600010FF002080465FFA88F8B8F1080F0BDAD9
:10447000FFB2380150FA88F0DFF8B412405CFFF761
:10448000B5FE18F10108EEE7691CC9B22000C0B200
:10449000FFF7F7FE002080465FFA88F8B8F1080FB2
:1044A0000CDAFFB2380150FA88F0DFF884124018B5
:1044B000007AFFF79BFE18F10108EDE7083419F1C7
:1044C0000109B6E7BDE8F1832DE9F84304000D00CA
:1044D000160000275FF000085FF001095FFA88F816
:1044E00018F80600002800F088800020070001204E
:1044F0008146FFB28F48385C80281BDBFFB28D48B5
:10450000385C5FFA88F818F80610884210D1FFB2BC
:104510008848381840785FFA88F818EB060149781F
:10452000884205D1FFB20E2017FB00F0814601E062
:10453000BF1CDEE7E4B2772C02DB002004006D1C18
:104540002900C9B22000C0B2FFF79BFE1FFA89F90B
:10455000B9F1010F2BD02900C9B22000C0B2FFF77A
:1045600090FE00200700FFB20E2F0ADA1FFA89F929
:10457000714819F80000FFF739FE19F101097F1C95
:10458000F1E7691CC9B22000C0B2FFF77AFE002033
:104590000700FFB20E2F2CDA1FFA89F9664819F8C6
:1045A0000000FFF723FE19F101097F1CF1E718F164
:1045B00001082900C9B22000C0B2FFF762FE002046
:1045C0000700FFB2102F04DA0020FFF70FFE7F1C58
:1045D000F7E7691CC9B22000C0B2FFF752FE002005
:1045E0000700FFB2102F04DA0020FFF7FFFD7F1C49
:1045F000F7E70E3418F1020870E7BDE8F183F8B56B
:1046000004000D0016000027FFB2B85D00282AD074
:10461000FFB2B85D802815DBFFB2B85D8DF80000F1
:10462000FFB2B81940788DF8010000208DF8020023
:1046300000AA2900C9B22000C0B2FFF745FF0E341E
:10464000BF1CE1E7FFB2B85D8DF8000000208DF8D7
:10465000010000AA2900C9B22000C0B2FFF7DFFEA6
:1046600008347F1CD0E7F1BD1CB53448006840F227
:104670002E41884208D33148006840F2DD5188421B
:1046800002D22E4800680400220022A100A800F0F7
:104690005DF800AA00210020FFF7B1FF13BD1CB593
:1046A000274890F90000002804D4254890F900001C
:1046B000040003E0224890F90000040064B22200E4
:1046C00015A100A800F042F800AA02210020FFF77F
:1046D00096FF13BD30B585B01A48B0F9000004004C
:1046E0001948B0F90000050022000BA102A800F053
:1046F0002DF82A0008A100A800F028F802AA042139
:104700000020FFF77CFF00AA06210020FFF777FFBB
:1047100005B030BD25346400253364003818FE43ED
:104720002C08FE434008FE431018FE433C18FE438D
:10473000FC3B0000785D0000BC500000400EFF1FF5
:104740004C0EFF1FBA0BFF1FB80BFF1F0CB41CB59C
:10475000044604A801900A46009401AB00A907484A
:1047600078441830FBF758FE009900220A700028A0
:104770005CBF0098001B16BC5DF80CFBC7C8FFFFB0
:10478000DFF800F0F10DFF1F40B2DFF8A81331F899
:10479000201040B20128C0F2738140B2112880F28B
:1047A0006F81DFF894230023137089B25B2904DA48
:1047B000DFF884230023537080E089B2B52904DA3E
:1047C000DFF874230123537078E089B2B1F5877F55
:1047D00004DCDFF86423022353706FE089B2B1F583
:1047E000B47F04DCDFF850230323537066E089B202
:1047F000B1F5E17F04DCDFF84023042353705DE072
:1048000089B2B1F5077F04DCDFF82C230523537050
:1048100054E089B240F27722914204DADFF818239B
:10482000062353704AE089B2B1F5347F04DCDFF827
:1048300008230723537041E089B240F22B329142A2
:1048400004DADFF8F4220823537037E089B2B1F5B7
:10485000617F04DCDFF8E022092353702EE089B287
:1048600040F2DF32914203DAB34A0A23537025E063
:1048700089B2B1F5876F03DCAF4A0B2353701DE09B
:1048800089B240F29342914203DAAB4A0C2353704F
:1048900014E089B240F2ED42914203DAA64A0D23B8
:1048A00053700BE089B240F24752914203DAA24AB8
:1048B0000E23537002E0A04A0F23537089B21A29C5
:1048C00003DA9D4A0023937069E089B2332903DA41
:1048D000994A0123937062E089B24C2903DA964A1F
:1048E000022393705BE089B2652903DA924A0323BD
:1048F000937054E089B27E2903DA8F4A04239370BF
:104900004DE089B2972903DA8B4A0523937046E07C
:1049100089B2B02903DA884A062393703FE089B24E
:10492000C92903DA844A0723937038E089B2E2295F
:1049300003DA814A0823937031E089B2FB2903DA54
:104940007D4A092393702AE089B2B1F58A7F03DAA0
:10495000794A0A23937022E089B2B1F5967F03DC8D
:10496000754A0B2393701AE089B2B1F5A37F03DA7D
:10497000714A0C23937012E089B2B1F5AF7F03DC6A
:104980006D4A0D2393700AE089B2B1F5BC7F03DA5A
:10499000694A0E23937002E0674A0F23937089B22D
:1049A0001A2903DA644A0023D37069E089B23329F3
:1049B00003DA614A0123D37062E089B24C2903DA39
:1049C0005D4A0223D3705BE089B2652903DA5A4A53
:1049D0000323D37054E089B27E2903DA564A0423B4
:1049E000D3704DE089B2972903DA534A0523D37077
:1049F00046E089B2B02903DA4F4A0623D3703FE07C
:104A000089B2C92903DA4C4A0723D37038E089B246
:104A1000E22903DA484A0823D37031E089B2FB293E
:104A200003DA454A0923D3702AE089B2B1F58A7FB7
:104A300003DA414A0A23D37022E089B2B1F5967FA6
:104A400003DC3D4A0B23D3701AE089B2B1F5A37F92
:104A500003DA394A0C23D37012E089B2B1F5AF7F83
:104A600003DC354A0D23D3700AE089B2B1F5BC7F6F
:104A700003DA314A0E23D37002E02F4A0F23D3709A
:104A8000704710B50400200040B2FFF77DFE2B48B0
:104A9000007810F0FD00294908702848007850F08F
:104AA0001000264908702648B82101702548007872
:104AB000C006FBD423480078C0F38100C0B20228AE
:104AC000F8D11D48C3781C4882781B4841781A48A1
:104AD0000078FFF755FE64B2164810EB840080782A
:104AE00010F01F001849087064B2124810EB8400DF
:104AF000C07810F01F0050F04000144908701148B1
:104B000000788006FBD50F4800784006FBD50C489E
:104B1000007810F03F000A4908700A480078C0F396
:104B20008100C0B20328F8D164B2024830F82400F2
:104B3000C0B210BD440BFF1F880BFF1F0140064091
:104B4000004006400640064004400640054006403E
:104B500038B504000D0064B2002C03D0022C66D0DE
:104B600049D380E0DFF87403006850F08070DFF80C
:104B70006C1308606DB2002D0BD0022D15D00ED332
:104B8000042D1ED017D3062D27D020D3072D2AD0D1
:104B90002FE04FF480614120FEF70AFA2AE04FF43B
:104BA00040710420FEF704FA24E04FF44071052020
:104BB000FEF7FEF91EE04FF440710620FEF7F8F90B
:104BC00018E04FF440710720FEF7F2F912E04FF4BD
:104BD00080616520FEF7ECF90CE04FF480616620FF
:104BE000FEF7E6F906E04FF480616720FEF7E0F992
:104BF00000E038E037E0DFF8E402006850F00070D1
:104C0000DFF8D81208606DB2002D02D0012D06D059
:104C10000BE04FF440710C20FEF7CAF906E04FF4A8
:104C200040710D20FEF7C4F900E01CE01BE0DFF846
:104C3000B002006850F08070DFF8A41208606DB216
:104C4000002D02D0012D06D00BE04FF44071322030
:104C5000FEF7AEF906E04FF440710B20FEF7A8F91D
:104C600000E000E0FFE731BD2DE9F84F04000D0042
:104C700016001F0064B2002C0ED064B2012C02D0CA
:104C800064B2022C02D16DB2022D05DB40F2851117
:104C9000DFF85002FEF7DFFC290049B2200040B2E5
:104CA000FFF756FFDFF8400200684FF47A7148437F
:104CB00080465FEA1840B0FBF6F08146002082464D
:104CC0001FFA89F959FA0AF0012802DB1AF1010AE0
:104CD000F6E75FFA8AFABAF1080F05DB4FF4D071F4
:104CE000DFF80002FEF7B7FC38FA0AF0B0FBF6F086
:104CF000814664B2DFF8F4011FFA89F940F8249084
:104D000064B2002C03D0022C18D00CD322E01FFA7E
:104D100089F919F1010000FB07F042F21071B0FBB4
:104D2000F1F0834616E01FFA89F919F1010000FB42
:104D300007F06421B0FBF1F083460BE01FFA89F91C
:104D400019F1010000FB07F042F21071B0FBF1F025
:104D50008346FFE76DB264B2DFF8940150F8240097
:104D600010EBC5006DB264B2DFF8841151F8241065
:104D700011EBC501C96831F00401C1606DB264B2C4
:104D8000DFF86C0150F8240010EBC5002821C16049
:104D900064B2DFF85C0150F824005FFA8AFA1AF076
:104DA000070151F00801016064B2DFF8440150F8D6
:104DB00024001FFA89F9C0F8089064B2DFF83001C6
:104DC00050F824000021C1646DB264B2DFF8200104
:104DD00050F8240010EBC5001FFA8BFBC0F810B090
:104DE00064B2DFF80C0150F8240000214160BDE8F6
:104DF000F18F2DE9F04104000D0016005FF000086E
:104E000064B2002C0ED064B2012C02D064B2022C29
:104E100002D16DB2022D05DB4FF4F371DFF8C4004F
:104E2000FEF719FC64B2002C03D0022C15D00BD372
:104E30001EE042F21170864205D34FF4F671DFF89E
:104E4000A400FEF708FC13E0652E05D34FF4F871BB
:104E5000DFF89000FEF7FFFB0AE042F21170864295
:104E600005D34FF4FA71DFF87C00FEF7F4FBFFE79F
:104E700064B2DFF8780050F82400804664B2002C59
:104E800003D0022C14D00AD31CE018F1010000FB5F
:104E900006F042F21071B0FBF1F0070012E018F1D9
:104EA000010000FB06F06421B0FBF1F0070009E00F
:104EB00018F1010000FB06F042F21071B0FBF1F0B6
:104EC0000700FFE76DB264B2DFF8240050F8240059
:104ED00010EBC5000761BDE8F08100003C80044094
:104EE00030800440205900009824FF1F3C24FF1FFD
:104EF000240BFF1FDFF800F0FF2C0000DFF800F0AC
:104F0000573600004D48F02101704C4800780006EB
:104F1000FBD54A4800787121084201D0002000E00A
:104F20000120704780B54648006850F4002044498D
:104F300008604448006850F40020424908603F4837
:104F400000780006FBD53D48F02101700A20FFF7EC
:104F5000D1FF01BD10B582B00400A4B24FF40060CF
:104F600000FB04F000903848092101709DF8020010
:104F7000364908709DF801003549087035489DF89C
:104F800000100170FFF7BEFF002801D100200CE0E7
:104F9000A4B2002C08D17FF0010240F20C412000A5
:104FA00080B200F003F800E0012016BD7CB50400DB
:104FB0000D001600A4B24FF40060ADB200FB045027
:104FC0000190ADB2042095FBF0F101FB10510029D6
:104FD00003D0EA212048FFF791FFADB2B5F5006F8D
:104FE00003DDEC211C48FFF789FF9DF806001749F7
:104FF00008709DF805001649087016489DF80410C1
:10500000017000969DF80300144908709DF8020095
:10501000134908709DF801001249087012489DF864
:1050200000100170084806210170FFF76BFF00288F
:1050300001D1002000E0012076BD00000000024008
:1050400004F0014008F00140070002400600024061
:105050000500024004000240D45A00000B00024048
:105060000A0002400900024008000240F0B4114E5C
:10507000366834000F4E366856F47F060D4F3E609A
:105080000E0616F0706656EA0076170517F47007DC
:105090003E431F0417F470273E43074F3E6000262F
:1050A0003500EDB29D4201D26D1CFAE7014E34602D
:1050B000F0BC704700F00140448004405C4444442C
:1050C000C475464444C444445C0020202213120AA0
:1050D00004040A091020000088C43396D4B79456FB
:1050E00010EF08F80800003F2014263D1624201970
:1050F00006192000042424242F24E4242F2424240B
:105100000400212111110907011F21212121310052
:1051100012248008C87FC808FE2222FE000018065C
:1051200001000F0427180721213F000002E20207B7
:10513000F28242322267A222020020203E22233E37
:10514000223E22223E2120001CC444444445F64411
:10515000444444C41C00003F121212121F121212C7
:10516000123F000000F848484848FF48484848F8BF
:1051700000000007020202021F222222222338001E
:10518000404141414141E151494543414000000016
:10519000000020203F00000000000000101012144A
:1051A000D03F1090101010F00000201008060100F1
:1051B00000002320100F00001008FC03886407047F
:1051C000F40424CC00002018011C2020232D2130C1
:1051D0000004180000FE2222FE00FE42C25252DEEF
:1051E0000000201F01213F003F100B040A11200086
:1051F000404844262B9212122A26424040000021A9
:1052000011090503010121211F00000080B53E485E
:10521000026803210020FFF7ECFD01BD80B50023EB
:1052200044F6206203210020FFF71EFD01BD10B5EA
:105230003648006805280ADA3448006810F1040F7F
:1052400005DB33483349B1F90010016004E0304810
:105250003149B1F9001001602D48006800F070F884
:105260002E490968FEF7C0F8FDF70CFD2C490860CF
:105270002748006800F064F82A490968FEF7B4F886
:10528000FDF700FD2849086028480068FDF7FAFC92
:10529000274908602748B0F900000A2190FBF1F087
:1052A00000F04EF824490860214800682349B1F90C
:1052B00000101B4A12681C4B1B68D21A02FB01002B
:1052C00000F03EF804001648006800F039F81A496A
:1052D0000968FEF73FF92100FEF7FAF8FDF7D2FC66
:1052E000094908600848006842F21071884203DBEF
:1052F000054842F21071016003480068012802DA93
:1053000001480021016010BD6024FF1F4C0EFF1FEB
:105310005024FF1FBA0BFF1FB80BFF1F3424FF1FC1
:105320004824FF1F3824FF1F4C24FF1F5824FF1F51
:105330005424FF1FBC0BFF1F5C24FF1FBE0BFF1F6D
:10534000002840F10980F446404200F005F850F092
:1053500000406047002800BF0AD0B0FA80F18840C2
:10536000D1F19D01C905020672F1004241EB102006
:105370007047000080B500F095F800F02AF800F0C2
:105380000AF8FEF785F9012201210420FEF7F6F95B
:1053900000F0B9F8FEE780B50D20FFF772FB334946
:1053A0000860324800684FF47A7148433049086019
:1053B0002F4800682F490968C1F30361491CB0FBFD
:1053C000F1F02D4908605FF4E1310420FEF7A2FA04
:1053D00001BD2DE9F8432948294988420DD0002014
:1053E0008046B8F5826F08D22448254951F8281024
:1053F00040F8281018F10108F3E7204800F000F900
:10540000204807002048060020480400A01B8046D2
:105410004046B0F10108002804D030783870761C7E
:105420007F1CF5E71A4881461A480500B5EB0900CC
:1054300080464046B0F10108002805D0002089F8D8
:10544000000019F10109F4E713481449144A531AEA
:1054500098464346B3F10108002B04D00B78037043
:10546000491C401CF5E7BDE8F18300009424FF1FB0
:105470009024FF1F448004409824FF1F0000FF1F5A
:10548000000000001004FF1FE81900005422000073
:10549000400EFF1FF924FF1F780CFF1FF44E000081
:1054A000BC50000080B500F008F80C4800884FF6AA
:1054B000FE7108400949088001BDEFF3118072B602
:1054C00007494CF220520A8005494DF628120A80FD
:1054D000C0B2002800D162B670470000002005402D
:1054E0000E20054040B2002808D540B210F00F024F
:1054F000384BD2180B0102F8043C03E040B2364AA4
:105500000B018354704780B572B600F014F800F0B8
:1055100037F862B6FCF79EFE00F09AF8FFF787FEB8
:10552000FFF774FEFFF7A0F8FFF7B9F8FFF7D2F81E
:1055300000F0AEF8EEE780B52848FDF7A1F9FEF7D8
:10554000E5FE00F08FF8FFF769FE25498920FDF799
:105550002FFD23498A20FDF72BFD21498B20FDF7E4
:1055600027FD1F498C20FDF723FD1E485FF07E516B
:1055700041621D4B00221D491A48FDF743FB01BD46
:1055800080B500224FF6FF71012000F0DBF81849CA
:10559000542000F046F8174800680A2101FB00F18A
:1055A000002000F043F906215520FFF79BFF0FF282
:1055B0000D01652000F035F801BD00000E480068BF
:1055C00050F080000C4908600C480078401C0B49E2
:1055D0000870704718ED00E000E400E0580EFF1F6F
:1055E00003010A006424FF1F000040400000104136
:1055F000B95800009824FF1F00000440F824FF1F42
:1056000010B504004FF4007094FBF0F101FB104161
:10561000002903D01E210B48FEF71DF80A4804603C
:1056200010BD38B504000D000748006807498842DE
:1056300003D030210348FEF70EF864B2034840F867
:10564000245031BDD05B000008ED00E00000FF1FDA
:1056500080B50348026800210220FFF7CAFB01BDA4
:10566000400EFF1F80B540F29743462200210220E2
:10567000FFF7FAFA01BD000010B440B241092D4A0B
:10568000012310F01F04A34042F8213010BC7047E2
:1056900080B50FF211016B20FFF7C3FF5B20FFF70E
:1056A000EBFF01BD30B400200021002200230924BB
:1056B00020000A2421000B2422000C2423001E4C6D
:1056C0002468C440E40708D5012484401A4D2C60A6
:1056D0001A4C24880A34194D2C80174C2468CC406D
:1056E000E40708D501248C40134D2C60134C24880A
:1056F0000A3C124D2C80104C2468D440E40708D595
:10570000012494400C4D2C600D4C24880A340C4D1F
:105710002C80094C2468DC40E40708D501249C4017
:10572000054D2C60064C24880A3C054D2C8030BC6D
:105730007047000000E100E0A0D00440BA0BFF1F5A
:10574000B80BFF1F70B504000D0016002A48006852
:1057500050F001002849086064B2012C05D14FF4D3
:10576000C0611320FDF724FC12E064B2022C05D1C5
:105770004FF480614520FDF71BFC09E064B2012C69
:1057800006D064B2022C03D032211C48FDF763FF1F
:105790001B48002101601B48052101601A48ADB279
:1057A000056076B2012E01D1082000E0002064B22D
:1057B000210111F03001084350F043001049086006
:1057C00070BD0F490968090603D54FF6FF7108003F
:1057D00002E00E49096808000D4908807047084832
:1057E000006840084000064908600548006850F01D
:1057F0000100034908607047388004407859000070
:105800000000044004000440080004400C00044070
:10581000F024FF1F10B440B24109224A012310F0C6
:105820001F04A34042F8213010BC704738B5040073
:105830000D00002D03D122211B48FDF70CFF1B4852
:10584000006850F4000019490860194800210160FF
:1058500064B2200117496A1E425064B2154810EB29
:105860000410C06850F0010064B2124911EB041139
:10587000C86064B20F4810EB041080684008400014
:1058800064B20C4911EB0411886064B2094810EB52
:1058900004100321816014F1440040B2FFF7BAFF05
:1058A00031BD000000E100E0D05900003C80044020
:1058B000007003400071034080B572B61248008842
:1058C000401C11490880FFF77CFFFFF788FF0F4855
:1058D00000880F49097841F28832514311FA80F06B
:1058E0000A49088009480088FFF734FD0949086023
:1058F00009480849096801600848006850F001003B
:105900000649086062B601BDF224FF1FF024FF1FA4
:10591000F824FF1F3424FF1F3824FF1F0C7103409D
:10592000433A5C55736572735C6C656E6F766F5C41
:105930004465736B746F705CB7C9BFA8B7C9BFA863
:105940005C6D7920746869726420736F6EBFAA5CA5
:105950006D7920746869726420736F6E30353230EF
:105960005C436869705C7372635C4D4B36305F6694
:10597000746D2E6300000000433A5C5573657273CA
:105980005C6C656E6F766F5C4465736B746F705C96
:10599000B7C9BFA8B7C9BFA85C6D79207468697220
:1059A0006420736F6EBFAA5C6D792074686972643D
:1059B00020736F6E303531345C436869705C73728C
:1059C000635C4D4B36305F6C70746D722E630000FB
:1059D000433A5C55736572735C6C656E6F766F5C91
:1059E0004465736B746F705CB7C9BFA8B7C9BFA8B3
:1059F0005C6D7920746869726420736F6EBFAA5CF5
:105A00006D7920746869726420736F6E303531343B
:105A10005C436869705C7372635C4D4B36305F50F9
:105A200049542E6300000000433A5C55736572735D
:105A30005C6C656E6F766F5C4465736B746F705CE5
:105A4000B7C9BFA8B7C9BFA85C6D7920746869726F
:105A50006420736F6EBFAA5C6D792074686972648C
:105A600020736F6E5C436869705C7372635C4D4B4E
:105A700036305F5379735469636B2E630000000006
:105A8000433A5C55736572735C6C656E6F766F5CE0
:105A90004465736B746F705CB7C9BFA8B7C9BFA802
:105AA0005C6D7920746869726420736F6EBFAA5C44
:105AB0006D7920746869726420736F6E5C436869E5
:105AC000705C7372635C4D4B36305F646D612E6346
:105AD00000000000433A5C55736572735C6C656E40
:105AE0006F766F5C4465736B746F705CB7C9BFA8E9
:105AF000B7C9BFA85C6D7920746869726420736F40
:105B00006EBFAA5C6D7920746869726420736F6ED1
:105B10005C436869705C7372635C4D4B36305F66E2
:105B20006C6173682E630000433A5C557365727351
:105B30005C6C656E6F766F5C4465736B746F705CE4
:105B4000B7C9BFA8B7C9BFA85C6D7920746869726E
:105B50006420736F6EBFAA5C6D792074686972648B
:105B600020736F6E5C436869705C7372635C4D4B4D
:105B700036305F6770696F2E63000000433A5C55F2
:105B8000736572735C6C656E6F766F5C4465736B86
:105B9000746F705CB7C9BFA8B7C9BFA85C6D792026
:105BA000746869726420736F6EBFAA5C6D7920742B
:105BB0006869726420736F6E5C436869705C7372AD
:105BC000635C4D4B36305F756172742E630000006C
:105BD000433A5C55736572735C6C656E6F766F5C8F
:105BE0004465736B746F705CB7C9BFA8B7C9BFA8B1
:105BF0005C6D7920746869726420736F6EBFAA5CF3
:105C00006D7920746869726420736F6E5C43686993
:105C1000705C7372635C6D6973632E6300000000D7
:105C20000A2A2A2A2A64656661756C745F69737230
:105C300020656E7465726564206F6E20766563748E
:105C40006F722025642A2A2A2A2A0A0A25732049E3
:105C50006E746572727570740000000038B50024AF
:105C6000094800680028FBD007480068050006487E
:105C70005FF0FF3101601120040035FA04F0C00725
:105C800001D5FCF733FE31BDA0A0044080B5FCF780
:105C900053FE01BD10B5074979441831064C7C44C8
:105CA000163404E00A68081D511888470146A142CD
:105CB000F8D110BD740000008000000041737365CE
:105CC0007274696F6E206661696C656420696E200C
:105CD0002573206174206C696E652025640A0000BC
:105CE0000A4765742049442073756363657373A321
